:100000000C942D030C9455030C9455030C94550338
:100010000C9455030C9455030C9455030C94550300
:100020000C9455030C9455030C9455030C94981997
:100030000C9455030C9455030C9455030C945503E0
:100040000C940F1A0C9455030C9455030C945503FF
:100050000C9455030C9455030C9455030C945503C0
:100060000C9455030C945503436F707465722062B1
:100070007920416E6E7900436F70746572206279E9
:1000800020416E6E790003053F213F0A100A1208D5
:10009000120E1C0E0C1E0C141A14161F161E131E04
:1000A0001E1B1E1E1F1E3F213F3A2F3A173D173FB2
:1000B000213F181F02040A041F0E04040E1F0A1F0A
:1000C0000A0E0E1F04110E2E252E2F2A2E26292948
:1000D000021F02081F08150E04040E150E15151B2D
:1000E000151B040604040C040000000017000300A4
:1000F000031F0A1F16371A1904130A153A000300C2
:10010000000E11110E000A040A040E04003000044F
:1001100004040010001804031F111F121F101D15E6
:100120001711151F07041F17151D1F151D01011F8E
:100130001F151F17151F000A00003200040A110ABC
:100140000A0A110A040115020E11171E051E1F15B9
:100150000A0E110A1F110E1F15111F05010E111D88
:100160001F041F111F1108100F1F041B1F10101F49
:10017000061F1E040F0E110E1F09060E112E1F055D
:100180001A121509011F011F101F0F180F1F0C1F36
:100190001B041B031C03191513001F110304181162
:1001A0001F000201022020200001020C121E1F125B
:1001B0000C0C12120C121F0C1A14041E05242A1EF9
:1001C0001F021C141D1020201D1F0814111F101EBB
:1001D000041E1E021C0C120C3E0A040C123E1E04CD
:1001E0000214160A020F120E101E0E100E1E081E0A
:1001F000120C1226281E322A26041E21001F00215E
:100200001E040102013F213F05077F4141417F3E1E
:100210005B4F5B3E3E6B4F6B3E183C783C18183C86
:100220007E3C181C577D571C1C5E7F5E1C007E4365
:10023000437E007E73737E007E7F7F7E7F414141DF
:100240007F30483A060E06297929067F4141417FD1
:1002500060703F02042A1C361C2A7F3E1C080000E6
:10026000081C3E7F14227F22143C3C3C7EFF184237
:100270003C817E3E6375633E3E616B633E3E636BD5
:100280006B3E04027F020410207F201008082A1C05
:1002900008081C2A0808143E5541226375697563D5
:1002A00010181C1810040C1C0C04000000000000A6
:1002B000005F00000007000700147F147F14042A69
:1002C0007F2A10231308646236495620500008071D
:1002D0000300001C2241000041221C002A1C3E1C7D
:1002E0002A08083E080800E060000008080808081E
:1002F000006060000060100804033E5149453E0064
:10030000427F400062514949462141494D3318140A
:10031000127F1027454545393C4A49493041211152
:1003200009073649494936064949291E0000240073
:1003300000008064000008142241001414141414F6
:10034000004122140802015909063E415D594E7CC4
:100350001211127C7F494949363E414141227F4179
:1003600041221C7F494949417F090909013E414118
:1003700051327F0808087F00417F41002041413F02
:10038000017F081422417F404040407F020C027FE1
:100390007F0204087F3E4141413E7F090909063E34
:1003A000416141BE7F091929462649494932010167
:1003B0007F01013F4040403F1F2040201F3F403809
:1003C000403F6314081463030478040361514945F2
:1003D00043007F41410003040810600041417F0059
:1003E000040201020480808080800003070800204E
:1003F000545478407F28444438384444442838448E
:1004000044287F3854545418087E09090218A4A4BB
:100410009C787F0804047800447D4000006080845C
:100420007D7F1010284400417F40007C04780478D0
:100430007C080404783844444438FC1824241818F0
:10044000242418FC7C080404080854545420043F55
:100450004444203C4040207C1C2040201C3C402048
:10046000403C44281028444C9090907C4464544C68
:1004700044000836410000007F00000041360800BB
:10048000180408100C7F4141417F0A4E6F205344ED
:100490002063617264206F720A6E6F204C4F41447A
:1004A00045522E4845580A0A153A45786974001D88
:1004B00020466C617368696E670A20206C6F616406
:1004C00065722E2E2E0A0A444F4E27542054555240
:1004D0004E204F464621004E4F2042415454455233
:1004E000590A0A504C454153450A5455524E204F23
:1004F000464600177361766500166261636B0015EE
:1005000074797065000A0A0A153A6F6B61792016D2
:100510003A6564697400596F7520656E746572651B
:10052000640A00540A03E181867F3E186D830F0F31
:100530000E0183866033186DC3198F1803C38E6054
:1005400033186DE330CF1803C39E603630CDE360BF
:10055000CF3006C79E7E3E30CDB360CF300CC6F69E
:10056000603330D9B660CF33CFCCF66061B0DB1EDC
:1005700060CF30D86CE6C061B0DB1E618F19986C1B
:10058000C6C063B19B0E330F0FB078C6FF7E1F1B32
:10059000061E0F1753440016137800161314001587
:1005A00010200015201000000005008930080238D6
:1005B00002497868140000450068010000050068E1
:1005C00001380100000500380168010000F6E8DB91
:1005D000CFC3B8AEA49B928A827B746E68625C576C
:1005E000524E4945413E3A3734312E2C2927252396
:1005F00021F505F9050101F7030101FF03000000E2
:1006000000240027002A0000000000250028002BFD
:100610000000000000230026002900040404040454
:10062000040404020202020202030303030303019F
:100630000204081020408001020408102001020476
:10064000081020000000070002010000030406005B
:1006500000000000000000003F0411241FBECFEF87
:10066000D8E0DEBFCDBF11E0A0E0B1E0E8EDF2E4FC
:1006700002C005900D92AC35B107D9F714E0ACE596
:10068000B1E001C01D92A43BB107E1F716E0CAE555
:10069000D6E004C02297FE010E942F21C835D10761
:1006A000C9F70E94871C0C946A210C940000A0E0FA
:1006B000B0E0EDE5F3E00C943B21EC01A880B980BB
:1006C000CA80DB80A114B104C104D10441F484E2E6
:1006D000A82E89EDB82E8BE5C82E87E0D82EC6014E
:1006E000B5012DE133EF41E050E00E94122127EAED
:1006F00031E440E050E00E949E207B018C01C60165
:10070000B5012DE133EF41E050E00E941221CA0112
:10071000B9012CEE34EF4FEF5FEF0E949E206E0D7B
:100720007F1D801F911F97FF04C061507040804063
:100730009048688379838A839B839B01AC015F77B0
:10074000B901CA01CDB7DEB7EAE00C9457210E9487
:100750005703089587E091E00E945703089560933E
:100760000701709308018093090190930A0108958D
:10077000AF92BF92CF92DF92EF92FF920F931F93AF
:1007800020910B0130910C0184E590E0B9010E94A9
:10079000DD20AB0170939E0260939D02415050405A
:1007A0005093A00240939F024F5F5F4F10928A02C6
:1007B00010928902E0900D01F0900E0100910F015E
:1007C00010911001E0928B02F0928C0200938D0246
:1007D00010938E0280E090E0A0ECB1E480938F0251
:1007E00090939002A0939102B093920280E090E0E7
:1007F000A0E0B0E08093930290939402A0939502BE
:10080000B09396028091150190911601BC01629FF0
:10081000C001639F900D729F900D112490939802D8
:100820008093970280913F019091400190939A02AA
:1008300080939902E1EEF1E080E090E00F2EF0E08D
:10084000AF2EF0E0BF2EF0ECCF2EF1E4DF2EF02D36
:100850000AC0A482B582C682D782E082F182028376
:10086000138301963896841795079CF31F910F9177
:10087000FF90EF90DF90CF90BF90AF9008951092CF
:10088000AB011092AA0187E591E09093A9018093B2
:10089000A80108950F930091A1026091A5027091A3
:1008A000A6028091A7029091A8020E94541F9B016A
:1008B000AC0188EA91E06091A302422F202F0E94B0
:1008C000980C0F9108952F923F924F925F926F92E2
:1008D0007F928F929F92AF92BF92CF92DF92EF92D0
:1008E000FF920F931F93DF93CF9300D000D0CDB72B
:1008F000DEB721EE31E03A8329831C821B8258C087
:10090000E981FA81E080F18002811381A480B580C1
:10091000C680D78020900B0130900C01C801B70130
:1009200020E030E040E05FE30E943B209B01AC010F
:10093000C601B5010E94841E0E94541F3B014C0158
:10094000962E2B813C81229D2001239D500C329DAF
:10095000500C1124C801B70120E030E040E05FEB0B
:100960000E943B209B01AC01C601B5010E94841E80
:100970000E94541F7B018C0188EA91E0642D40E0C5
:10098000222D0E2D0E94980C00E3091988EA91E0AF
:10099000642D462D20910B010E94980C8B819C8127
:1009A00001969C838B83E981FA813896FA83E983E7
:1009B00080919D0290919E022B813C8128173907DE
:1009C0000CF49ECF0F900F900F900F90CF91DF916E
:1009D0001F910F91FF90EF90DF90CF90BF90AF905D
:1009E0009F908F907F906F905F904F903F902F904F
:1009F0000895EF92FF920F931F93CF93DF9386E6B4
:100A000091E064E041E00E94800B882349F486E68F
:100A100091E065E041E00E94800B882309F48FC0DB
:100A20006091A9027091AA028091AB029091AC02F0
:100A30002091410130914201409143015091440184
:100A40000E94841E6093A9027093AA028093AB0255
:100A50009093AC02E0904501F0904601009147016F
:100A600010914801A80197010E943720181644F4FC
:100A7000E092A902F092AA020093AB021093AC029A
:100A80006091A5027091A6028091A7029091A802A0
:100A90002091A9023091AA024091AB025091AC0280
:100AA0000E94831E7B018C016093A5027093A602B5
:100AB0008093A7029093A802C091A102D091A202B4
:100AC000BE01882777FD8095982F0E94871F9B0184
:100AD000AC01C801B7010E94841E20E030E040E470
:100AE00052E40E94372018169CF460E370E06C1BFF
:100AF0007D0B882777FD8095982F0E94871F609334
:100B0000A5027093A6028093A7029093A80240C00A
:100B1000C801B70120E030E040E050E00E94E81E4C
:100B20008823B4F580E090E0A0E0B0E08093A502D7
:100B30009093A602A093A702B093A80229C0609147
:100B4000A9027091AA028091AB029091AC0220910F
:100B5000490130914A0140914B0150914C010E9452
:100B6000831E6093A9027093AA028093AB029093B4
:100B7000AC02E0904D01F0904E0100914F011091B8
:100B80005001A80197010E94E81E87FD71CF78CF20
:100B9000DF91CF911F910F91FF90EF9008952F92C9
:100BA0003F924F925F926F927F928F929F92AF92FD
:100BB000BF92CF92DF92EF92FF920F931F93DF933A
:100BC000CF93CDB7DEB72C970FB6F894DEBF0FBE2C
:100BD000CDBF8091E001882309F4A2C0B1C0D1014A
:100BE0008D919D910D90BC91A02D8D839E83AF839F
:100BF000B887D10114968D919D910D90BC91A02D37
:100C000089839A83AB83BC83A0900B01B0900C01C5
:100C10002B853C852A9DF0012B9DF00D3A9DF00D12
:100C20001124FA87E9870091A1021091A202409055
:100C3000A3025090A4026091A5027091A602809137
:100C4000A7029091A8020E94541F6B017C016D8144
:100C50007E818F81988520E030E040E05FEB0E944C
:100C60003B209B01AC0169817A818B819C810E9430
:100C7000841E0E94541F3B014C018CE591E0B2019F
:100C8000A6019801E984FA84CC24DD2443010E9462
:100C90000D12882309F056C06D817E818F81988561
:100CA00020E030E040E05FE30E943B209B01AC018C
:100CB00069817A818B819C810E94841E0E94541FCD
:100CC0002B013C010091A1021091A202C090A3024D
:100CD000D090A4026091A5027091A6028091A70213
:100CE0009091A8020E94541F9B01AC01A0900B019F
:100CF000B0900C0190E3892E912C841895088CE516
:100D000091E0B601A9019801E984FA8462010E9488
:100D10000D12A8E0B0E02A0E3B1E882399F42CC0E7
:100D200081EE282E81E0382E1C861B8680919D0244
:100D300090919E02EB85FC85E817F9070CF44FCFE4
:100D400080E001C081E02C960FB6F894DEBF0FBEA4
:100D5000CDBFCF91DF911F910F91FF90EF90DF906A
:100D6000CF90BF90AF909F908F907F906F905F904B
:100D70004F903F902F9008952B853C852F5F3F4FDC
:100D80003C872B87D3CF0E94CF05882329F088EAA0
:100D900091E068E072E004C088EA91E066E870E003
:100DA0000E94FA0E6091890270918A0288EA91E0AD
:100DB0004AE050E00E94DF1D0895CF92DF92EF924B
:100DC000FF920F931F936C01FC01608171818281FE
:100DD00093810E94541F7B018C01F601648175810F
:100DE000868197810E94541F9B01AC01C801B70105
:100DF0000E945D1E0E94871F1F910F91FF90EF9030
:100E0000DF90CF9008952F923F924F925F926F9212
:100E10007F928F929F92AF92BF92CF92DF92EF928A
:100E2000FF920F931F93DF93CF93CDB7DEB7289731
:100E30000FB6F894DEBF0FBECDBFE0908902F090F0
:100E40008A020894E11CF11CF0928A02E092890265
:100E50000E94651A0027F7FC0095102FA801970142
:100E60000E949E20DC01CB010E947B1EC0909F024D
:100E7000D090A00289EE91E040E050E00BC04F5FBF
:100E80005F4FDC011897FC0128E001900D92215082
:100E9000E1F708964C155D0594F320918B02309193
:100EA0008C0240918D0250918E022D833E834F83A0
:100EB000588780918F0290919002A0919102B091F9
:100EC000920289839A83AB83BC830091890210913B
:100ED0008A0280900B0190900C01809115019091F5
:100EE0001601889EB001899E700D989E700D112488
:100EF000C8010E94DD20892B09F042C0F090110149
:100F0000E0901201B0901301A09014016D817E81D8
:100F10008F8198852F2D3E2D4B2D5A2D0E943720E5
:100F2000181674F56D817E818F8198852091170147
:100F3000309118014091190150911A010E943B20F3
:100F40006D837E838F8398872F2D3E2D4B2D5A2DB9
:100F50000E943720181644F08F2D9E2DAB2DBA2DF0
:100F60008D839E83AF83B8872D813E814F815885C5
:100F700020938B0230938C0240938D0250938E020B
:100F8000E0909902F0909A020E151F050CF4C3C070
:100F900087E391E00E94DD065B016C01B7018827C1
:100FA00077FD8095982F0E94871F7B018C01B401EB
:100FB000882777FD8095982F0E94871FA6019501AD
:100FC0000E943B209B01AC01C801B7010E94841E16
:100FD0000E94541F70939A02609399028FE291E0ED
:100FE0000E94DD060E94541F70939C0260939B0236
:100FF00060912B0170912C01882777FD8095982FA7
:101000000E94871F5B016C016D817E818F819885B5
:10101000A60195010E94E81E882324F4AD80BE80BD
:10102000CF80D884E0902D01F0902E010027F7FCAE
:101030000095102FC601B5010E94541F9B01AC0101
:10104000C801B7010E945D1E0E94871F6D837E83C9
:101050008F83988760908F027090900280909102A9
:1010600090909202A0908B02B0908C02C0908D0262
:10107000D0908E02C601B50120E030E040E05FEB89
:101080000E943B209B01AC01C401B3010E94841E5D
:101090007B018C016D817E818F81988520E030E01D
:1010A00040E05FE30E943B209B01AC01C801B70117
:1010B0000E94841E0E94541F1B012C01C601B50111
:1010C00020E030E040E05FE30E943B209B01AC0168
:1010D000C401B3010E94841E7B018C016D817E815D
:1010E0008F81988520E030E040E05FEB0E943B205C
:1010F0009B01AC01C801B7010E94841E0E94541FCD
:101100009B01AC01C201B1010E945D1E0E94871FBC
:101110005B016C012CC180919B0290919C0218167E
:101120001906FCF453E0CC0CDD1C5A95E1F7F601EE
:10113000EF51FE4F20813181428153812D833E83C7
:101140004F83588745EE51E0C40ED51ED601AD90B1
:10115000BD90CD90DC90019790939C0280939B0270
:1011600006C1C0909702D09098020C151D050CF492
:1011700078C083E291E00E94DD067B018C01B6011C
:10118000882777FD8095982F0E94871F5B016C014F
:10119000B401882777FD8095982F0E94871FA801AA
:1011A00097010E943B207B018C0160910B017091A3
:1011B0000C01882777FD8095982F0E94871F9B013F
:1011C000AC01C801B7010E943B209B01AC01C601E4
:1011D000B5010E94841E0E94541F70939802609370
:1011E0009702E0901B01F0901C0100911D011091ED
:1011F0001E01C801B7010E94541F0E943B1E5B01E3
:101200006C01C801B70120E030E040E05FE30E94DC
:101210003B207B018C01C601B5010E94871F9B0109
:10122000AC01C801B7010E94831E20911B013091BF
:101230001C0140911D0150911E010E94EC1E209145
:101240001F013091200140912101509122010E9403
:101250003B20609393027093940280939502909345
:101260009602209093023090940240909502509004
:10127000960269817A818B819C81A20191010E94F1
:10128000841E5B016C016D817E818F81988520E0D9
:1012900030E040E05FEB0E943B209B01AC01C601C7
:1012A000B5010E94841E7B018C016D817E818F813E
:1012B000988520E030E040E05FE30E943B209B0106
:1012C000AC01C601B5010E94841E3B014C01C8015E
:1012D000B70120E030E040E050E00E94E81E8823A3
:1012E0009CF4C601B501A80197010E94831E5B0111
:1012F0006C01D201C101B058809393029093940283
:10130000A0939502B0939602C401B30120E030E0AF
:1013100040E452E40E94372018160CF5C401B301D2
:1013200020E030E040E452E40E94831E9B01AC01C7
:10133000C601B5010E94831E5B016C01809193027E
:1013400090919402A0919502B0919602B05880932A
:10135000930290939402A0939502B0939602A09268
:101360008F02B0929002C0929102D0929202E091CC
:101370009F02F091A00233E0EE0FFF1F3A95E1F7D4
:10138000DF01AB51BE4FAD92BD92CD92DC9213976F
:10139000EF51FE4F2D813E814F815885208331834F
:1013A0004283538328960FB6F894DEBF0FBECDBF9D
:1013B000CF91DF911F910F91FF90EF90DF90CF9031
:1013C000BF90AF909F908F907F906F905F904F9065
:1013D0003F902F9008958CE591E00E94A013882300
:1013E00009F447C086E691E066E00E94760B882308
:1013F00091F10E94B80383E090E09093A202809361
:10140000A10284E090E09093A4028093A30280E084
:1014100090E0A0ECB1E48093A5029093A602A09383
:10142000A702B093A80280E090E0A0E0B0E0809333
:10143000A9029093AA02A093AB02B093AC0288EAEF
:1014400091E068E072E00E94FA0E8CE591E068E6B7
:1014500070E00E94B7150E94CF05882321F40E94F6
:1014600003070E94F9040E9463040E944A040E9438
:10147000C30608950F931F930E94B80383E090E082
:101480009093A2028093A10284E090E09093A40242
:101490008093A30280E090E0A0ECB1E48093A502E9
:1014A0009093A602A093A702B093A80280E090E0D8
:1014B000A0E0B0E08093A9029093AA02A093AB02AF
:1014C000B093AC020CE511E0C8010E94BC15C80144
:1014D00064E10E94631188EA91E068E072E00E9492
:1014E000FA0EC80167E770E00E94B7151F910F91CF
:1014F0000895882319F48CB5806202C08CB58F7D65
:101500008CBD08959CB5937F982B9CBD08952CB5F8
:10151000382F33702C7F322B3CBD2DB590E0959544
:1015200087959595879581702E7F822B8DBD089527
:101530008AE061E00E94E01B8AE061E00E94A11B5A
:101540008CB580618CBD8CB580648CBD8DE061E014
:101550000E94A11B8BE061E00E94A11B0895FC0189
:1015600081E08083089585E070E00E94411B08952A
:101570006F927F928F929F92AF92BF92CF92DF92A3
:10158000EF92FF920F931F93CF93DF93EC0189812A
:101590009A818C0124E0000F111F2A95E1F7081BA6
:1015A000190B85E10E941F1BBC01600F711F84E0B5
:1015B000769567958A95E1F77A8369838881882390
:1015C00081F12E813F816217730710F4B90106C0C3
:1015D000888599858617970708F4BC0100D000D04C
:1015E00080E090E040E050E0E884F98400E010E022
:1015F000AD80BB24CC24DD246C80772488249924FE
:10160000EDB7FEB761827282838294820E94F21DDE
:101610006B830F900F900F900F9085E070E00E9409
:10162000411BDF91CF911F910F91FF90EF90DF90C1
:10163000CF90BF90AF909F908F907F906F900895C4
:10164000FC018CE39FE09383828384E0818381E0CB
:1016500084870895CF93DF93EC018C8590E08F71A0
:101660009070892B69F584E10E941F1BAA2797FDC2
:10167000A095BA2FBC01CD010E94871F26EE3FE343
:101680004EEC50E40E943B200E94591F9B01AC018C
:101690007B836A836115710589F084E08983B901D0
:1016A000FE0120E0848195816817790710F4298371
:1016B0000AC02F5F32962430A9F702C08FEF8983CA
:1016C0008C858F5F8C87DF91CF910895FC0188E036
:1016D000808389E0818387E0828386E0838384E05E
:1016E000848382E0858381E18683089520E0FC0184
:1016F000E60FF11D8781813009F421E0822F0895E2
:10170000E62FF0E0423040F420E0E80FF91F878137
:1017100081508E3F88F40FC0E80FF91F87818F3FFB
:1017200011F420E009C020E090E0642F70E00E94F6
:10173000C920019709F421E0822F08950F931F9388
:10174000CF93DF93EC0110E00FEF888162E00E94FD
:10175000A11B88810E94341C2F81892B19F42F5FD3
:101760002F8307C0222349F02F3F11F41F8201C0AD
:101770000F83888160E00E94A11B1F5F21961730B4
:1017800021F7DF91CF911F910F910895FC01678F91
:1017900060A30895FC01678F40A30895FC016435A0
:1017A000A8F547FD33C040338CF5878D942F959570
:1017B00095959595772767FD70954770882399F0E3
:1017C000E4E59E02F0011124E60FF71FE355FD4FFB
:1017D00081E090E002C0880F991F4A95E2F72081CE
:1017E000282B20830895E4E59E02F0011124E60FE2
:1017F000F71FE355FD4F81E090E002C0880F991F6D
:101800004A95E2F780952081282320830895AF929E
:10181000BF92CF92DF92EF92FF920F931F93CF93DD
:10182000DF93EC01162FF42EE22EAA24402F552729
:1018300047FD50958F2D992787FD9095481B590B93
:1018400057FF03C0509541955F4F2E2D332727FD3D
:101850003095812F992787FD9095281B390B37FFED
:1018600003C0309521953F4F2417350744F4AA242F
:10187000A3948F2DF12E182F802F0E2DE82EE11618
:1018800034F48E2DE12E182F802F0F2DF82EDE2C04
:10189000D11A202F332727FD30958F2D992787FDCB
:1018A0009095281B390B37FF03C0309521953F4F8A
:1018B000B22EF0161CF0CC24CA9402C0CC24C394DF
:1018C0008D2DD7FC8F5F082F059511C0AA2021F020
:1018D000CE016F2D412F03C0CE01612F4F2D0E94ED
:1018E000CE0B0B1907FF02C0FC0C0D0D1F5FE1169C
:1018F0006CF7DF91CF911F910F91FF90EF90DF90E8
:10190000CF90BF90AF9008950F93042F322F262FC2
:101910002150230F0E94070C0F9108950F93362F2B
:10192000042F0150020F232F0E94070C0F910895DE
:101930009F92AF92BF92CF92DF92EF92FF920F935E
:101940001F93CF93DF936C01B62E942EA02EC0E090
:10195000D0E0E62EFF24E7FCF094022F112707FDCC
:1019600010950E0D1F1D06C0C601492D2A2D0E947F
:101970008E0C21966B2D6C0FCE018E0D9F1D801746
:10198000910794F3DF91CF911F910F91FF90EF900A
:10199000DF90CF90BF90AF909F9008952F923F928D
:1019A0005F926F927F928F929F92AF92BF92CF92EF
:1019B000DF92EF92FF920F931F93DF93CF9300D0AC
:1019C00000D000D0CDB7DEB79E838D83C62ED42E37
:1019D000EE24E394E21A8EEF289F502C1124842EDB
:1019E0008A94962E9A94A42EA394B62EB394F22E93
:1019F000662423E0722E10E0C801847090709A83F0
:101A00008983F801E270F070FC83EB8398E0292E63
:101A1000312C202231220170107054C0E7FC04C028
:101A2000FA94F2E05F0EE50C639489819A81892B28
:101A300071F04F2D4D0D8D819E816B2D0E94CE0B2F
:101A40006F2D6C0D8D819E814A2D0E94CE0BEB81F6
:101A5000FC81EF2B71F04D2D4F198D819E816B2DE7
:101A60000E94CE0B6F2D6C0D8D819E81482D0E94A2
:101A7000CE0B2114310471F06C2D6F198D819E8174
:101A80004A2D0E94CE0B4F2D4D0D8D819E81692DCB
:101A90000E94CE0B0115110571F06C2D6F198D810F
:101AA0009E81482D0E94CE0B4D2D4F198D819E8118
:101AB000692D0E94CE0BE70CF2E07F0E8A949A9477
:101AC000A394B3946F140CF4A9CF26960FB6F89490
:101AD000DEBF0FBECDBFCF91DF911F910F91FF9061
:101AE000EF90DF90CF90BF90AF909F908F907F90BE
:101AF0006F905F903F902F9008954F925F926F92FA
:101B00007F928F929F92AF92BF92CF92DF92EF928D
:101B1000FF920F931F93CF93DF93EC01A62E742EA9
:101B20009E2DFF24F394F21A8EEF289F802C11240F
:101B3000B42EBA9453E0C52ECE0CE22EDD2443E041
:101B4000942E10E031E0432E512C40225122692E78
:101B500063940270107034C0F7FC04C0EA9482E011
:101B6000880EF80CD3944114510489F06D2D6A0D40
:101B7000472D4E192E2D220F260DCE010E948E0CC0
:101B80006E2D6A0DCE014B2D2C2D0E948E0C011551
:101B9000110589F06A2D6D19472D4E192E2D220F32
:101BA000260DCE010E948E0C6A2D6E19CE014B2D92
:101BB0002C2D0E948E0CF90C82E0980EBA94C80E5F
:101BC000DE1454F2DF91CF911F910F91FF90EF90AF
:101BD000DF90CF90BF90AF909F908F907F906F904D
:101BE0005F904F9008957F928F929F92AF92BF9295
:101BF000CF92DF92EF92FF920F931F936C01962E7C
:101C0000A42EF22E7E2C760E1EEFE19E102D1124B6
:101C1000812E820E672D282D0E94840CB02EBA0CC6
:101C2000BA94C601672D4B2D282D0E94840CAE0C52
:101C3000100FC601692D4A2D212F0E948E0CF90C20
:101C4000FA94C6016F2D4A2D212F0E948E0CC601D9
:101C5000672D4A2D2E2D01E00E94CE0CFE18C601E4
:101C60006F2D4A2D2E2D02E00E94CE0CBE18C6010B
:101C70006F2D4B2D2E2D04E00E94CE0CC601672D3A
:101C80004B2D2E2D08E00E94CE0C1F910F91FF903E
:101C9000EF90DF90CF90BF90AF909F908F907F900C
:101CA00008958F929F92AF92BF92CF92DF92EF9260
:101CB000FF920F931F936C01162FA42E922EF02EDD
:101CC000BE2C8E2C860E2EEFE29EE02C11242E2DA3
:101CD000290D682D0E94980CAB0CFA94FE0C115043
:101CE000190D1B19C601612F4A2D2B2D01E0EF2C78
:101CF0000E947D0DC601682D4A2D2B2D02E00E9409
:101D00007D0D1F910F91FF90EF90DF90CF90BF90CE
:101D1000AF909F908F9008953F924F925F926F92F5
:101D20007F928F929F92AF92BF92CF92DF92EF926B
:101D3000FF920F931F93CF93DF934C01362E442EC7
:101D4000F901A490319654906F010894C11CD11CE4
:101D50008A2D992787FD9095079668E070E00E948C
:101D6000DD20E62EFF24E7FCF09400E0C0E0D0E0A8
:101D700060E8662E712C26C0E12FE595E595E59586
:101D8000FF27E7FDF095EC0FFD1FEC0DFD1DE49125
:101D90002E2F30E0812F8770A30102C05595479503
:101DA0008A95E2F724233523232B31F0612F630D2D
:101DB000C4014B2D0E94CE0B1F5F1A15ECF20F5F72
:101DC000CE0DDF1D051524F410E0B02EB40CF5CFB8
:101DD000DF91CF911F910F91FF90EF90DF90CF9007
:101DE000BF90AF909F908F907F906F905F904F903B
:101DF0003F900895DC01FB0184918F5F14968C93D2
:101E00001497319684918F5F15968C931597319620
:101E10005E96FC93EE935D9708953F924F925F928A
:101E20006F927F928F929F92AF92BF92CF92DF92EA
:101E3000EF92FF920F931F93CF93DF93EC01862EC7
:101E4000A42E422F102F3F8C23E526170CF4ABC095
:101E50003FE23A150CF4A7C0C02EDD248C8190E03F
:101E600001979C01C29EC001C39E900DD29E900D11
:101E70001124262F332727FD3095820F931F181624
:101E800019060CF090C08D8190E09C01C29EC001AB
:101E9000C39E900DD29E900D11242A2D332727FD2D
:101EA0003095820F931F181619060CF07CC09924E8
:101EB000442E55246DC09C012150304042175307D9
:101EC00011F460E00EC0429EC001439E900D529EF0
:101ED000900D1124840F951FED8DFE8DE80FF91FD5
:101EE00064914C9DC0014D9D900D5C9D900D112401
:101EF000682C680EBB24792C780C3FC0E62EFF249A
:101F000060FF19C0113039F44B2D4A0DCE01672DF9
:101F10000E94CE0B2EC02C9DC0012D9D900D3C9D8E
:101F2000900D11244A2D480FCE01662D212F012F2F
:101F30000E94980C1EC098A18F8D9817D1F09F8F8A
:101F4000113039F44B2D4A0DCE01672D0E94CE0B76
:101F50000FC02C9DC0012D9D900D3C9D900D112416
:101F60004A2D480FCE01662D212F012F0E94980C7B
:101F70003F8EF594E7946E2DB3942B2D332727FDD8
:101F800030958D8190E0281739070CF4B7CF9394E2
:101F9000492D552747FD50958C8190E048175907EA
:101FA0000CF489CF3F8EDF91CF911F910F91FF905D
:101FB000EF90DF90CF90BF90AF909F908F907F90E9
:101FC0006F905F904F903F9008950F93CF93DF9362
:101FD000EC01262F6A3049F48D819885899F802DE8
:101FE00011249A85980F9A8726C06D3029F169854A
:101FF0004A8508850E940D0F9C816885969F402D1B
:1020000011248985480F49878F818823A9F0552796
:1020100047FD5095699F9001112484E590E0821B53
:10202000930B8417950744F49D81699F902D11248B
:102030008A85890F8A87198681E090E0DF91CF91A8
:102040000F9108951F93CF93DF93EC01162FF8940F
:102050008E8560E00E94E01B8F8518161CF460E0FE
:102060000E94E01B1EBD0DB407FEFDCF8EB58F850F
:1020700018161CF461E00E94E01B7894DF91CF9168
:102080001F910895FF920F931F93CF93DF93EC015D
:10209000FF2400E010E06F2D6064CE010E9422104A
:1020A000CE0160E80E9422108E8561E00E94E01B54
:1020B0008F8518161CF460E00E94E01BF801E355C0
:1020C000FD4F90E080818EBD0DB407FEFDCF8EB533
:1020D0009F5F31969435B1F78F8518161CF461E037
:1020E0000E94E01BF3940C5A1F4F86E0F81699F6F5
:1020F000CE0160E40E942210DF91CF911F910F91D9
:10210000FF900895CF93DF93DC0188EF91E0EDEA33
:10211000F2E0EF019C01199221503040E1F719964D
:102120001C9219971A961C92DF91CF910895EF9205
:102130000F93CF93DF93EC014D876C872E87E88A4E
:102140000F8781E088878F8F18A28F83E6E8F0E001
:1021500084918F5F8C83319684918F5F8D833196CC
:10216000FE8FED8F0E94980A81E00E94790A85E037
:102170000E94870A8CE00E94820A8D8561E00E949D
:10218000A11B8C8561E00E94A11B8E8561E00E94ED
:10219000A11B888918161CF461E00E94A11B8F8581
:1021A00018161CF461E00E94A11B888918166CF4B3
:1021B00060E00E94E01B6AE070E080E090E00E9436
:1021C0008B1A888961E00E94E01BEC852E2F332753
:1021D00027FD3095F901E55EF94FE491F0E0EE0F4F
:1021E000FF1FE95FF94F859194919C8B8B8B215D4B
:1021F000394FF90184918A8FED852E2F332727FDE2
:102200003095F901E55EF94FE491F0E0EE0FFF1F24
:10221000E95FF94F859194919A8B898B215D394FB4
:10222000F9018491898FEF852E2F332727FD309573
:10223000F901E55EF94FE491F0E0EE0FFF1FE95F71
:10224000F94F859194919E8B8D8B215D394FF901CA
:1022500084918B8FEE852E2F332727FD3095F90142
:10226000E55EF94FE491F0E0EE0FFF1FE95FF94FF3
:1022700085919491988F8F8B215D394FF9018491CD
:102280008C8FCE0161E20E942210CE0164E10E9497
:1022900022108B8587FF02C08FE78B876B85606874
:1022A000CE010E942210CE0160E20E942210CE01D7
:1022B0006CE00E942210CE010E944210DF91CF916B
:1022C0000F91EF900895FC01262FE458FF4F88EE00
:1022D00093E070E00E94DD206083EC57F040822F95
:1022E00064E10E94BD2087A30895CF93DF93DC01B2
:1022F000E0E8FFE685919491ED01C95ADF4FAD0109
:1023000043595F4F8150904C09F04EC0E6E9FFE61B
:10231000E491E883E7E9FFE6E4911496EC931497DF
:10232000E8E9FFE6E4911596EC931597E9E9FFE6F5
:102330008591949117969C938E931697EBE9FFE6FF
:102340008591949119969C938E931897EDE9FFE6E9
:10235000E4919996EC939997EEE9FFE6E4919896CB
:10236000EC939897EFE9FFE6E491EA01E883E0EA6D
:10237000FFE6859194915D969C938E935C97E2EA3B
:10238000FFE6859194915F969C938E935E97E4EA25
:10239000FFE68591949191969C938E939097E6EAAF
:1023A000FFE68591949132C08CE3888314961C9249
:1023B00014972FEF15962C93159780E293E01796BC
:1023C0009C938E93169784ED93E019969C938E932D
:1023D000189781E099968C93999798968C939897F3
:1023E000FA0120838CEA9DE05D969C938E935C9726
:1023F0008EED9DE05F969C938E935E9784E79EE0C2
:1024000091969C938E9390978CE39FE093969C93E8
:102410008E939297DF91CF9108958F929F92AF9272
:10242000BF92CF92DF92EF92FF920F931F93DF93B1
:10243000CF93CDB7DEB76E157F050CF452C0C50142
:102440008E0D9F1D681779070CF04BC04C155D056C
:102450000CF447C0C4018C0D9D1D481759078CF121
:1024600040C0C5018E0D9F1D281739070CF043C0D1
:102470004C155D050CF43FC0C4018C0D9D1D481723
:102480005907FCF038C0C5018E0D9F1D68177907EC
:10249000CCF54C155D05B4F1C4018C0D9D1D48179C
:1024A00059077CF02FC0AE0CBF1C2A153B055CF40D
:1024B0004C155D0544F080E08C0C9D1C48155905B9
:1024C0001CF481E001C080E0CF91DF911F910F915A
:1024D000FF90EF90DF90CF90BF90AF909F908F9044
:1024E000089561507040260F371F6F5F7F4F2E1584
:1024F0003F050CF0B6CF41505040400F511F6E15B4
:102500007F050CF62E153F0574F6DDCFEF92FF9296
:102510000F931F93CF93DF937C018C01045B1F4FBC
:10252000C8010E948210C8016FEA74E00E94C01CBA
:10253000C8010E94421083E00E94870A80E091E077
:10254000EEEFFFE3099582E590E0E80EF91EF70152
:102550001082C8016AE874E00E940B1DC8010E9445
:102560004210E701C854D040CE010E949E0BCE011C
:1025700064E00E94760B882339F462E370E080E027
:1025800090E00E948B1AF0CFDF91CF911F910F91B5
:10259000FF90EF9008950F931F93CF93DF93EC017B
:1025A0008C01045B1F4FC80161E040E00E94CA0B30
:1025B000FE01EB5AFF4FC05BDF4F85E59881891B19
:1025C000808326961882C655D040698D613061F1AE
:1025D000613028F0888D653008F03FC039C0CE01E9
:1025E00085960E94A816CE0160E00E94B30AC80139
:1025F0000E948210C80167ED74E00E94C01CC801EF
:102600000E94421083B7817F846083BF83B781605B
:1026100083BF83B7816083BF889583B78E7F83BF75
:1026200083B78E7F83BF1FC0C259DF4F88819981D6
:10263000AA81BB818F709070A070B0700897A105BF
:10264000B10518F4C80167E00CC0C80168E709C00B
:10265000882349F06B5FC80104C0882321F0C801BA
:102660006FE20E94E31CDF91CF911F910F910895BB
:10267000AF92BF92CF92DF92EF92FF920F931F9390
:10268000CF93DF93EC01CD57DF4F8881C358D04003
:10269000882309F44AC08C3010F010E002C01CE01E
:1026A000181BCC5ADF4F81E08883C455D0406CE4BE
:1026B000C62ED12CCC0EDD1EC60160E00E94C60BDA
:1026C00051E5A52EB12CAC0EBD1EF50100814DE2E9
:1026D000F42E4F2D401B410F0D5FC60160E024E535
:1026E00033E0E32E0E94510EC60161E00E94C60B4A
:1026F000F5010081F01AF10E0D5FC60160E04F2D6B
:1027000024E50E94F30DCB5ADF4F84E08993F50155
:102710008081181B115D1883AB9669917991C60170
:102720000E94C01C888181508883DF91CF911F91C6
:102730000F91FF90EF90DF90CF90BF90AF900895F2
:10274000AF92BF92CF92DF92EF92FF920F931F93BF
:10275000CF93DF93EC01EDE7AE2EB12CA80EB91E9E
:10276000F501E080F180028113810E94571AE61A78
:10277000F70A080B190B7CE7C72ED12CCC0EDD1EF7
:10278000F601808190E0A0E0B0E08E159F05A007E3
:10279000B10708F081C08E0108581F4FF8018081F1
:1027A0009181A281B3810097A105B10509F474C09C
:1027B0000E94571AF6012081620F711D811D911D23
:1027C000F5016083718382839383FE01E259FF4F99
:1027D00080819181A281B3810196A11DB11D808369
:1027E0009183A283B383F801108211821282138233
:1027F0000E94651ACC58DF4F688379838A839B8354
:10280000C457D040CE010E94B80ACE010A960E9459
:102810009E0BCE0148960E942A0B8E010B5D1F4F26
:10282000C8010E949016C8010E940718C8010E94A2
:102830005F1981E026C0CE010E943813CE010E94AC
:10284000CB128E01045B1F4FC8010E944210CE5A6A
:10285000DF4F8881C255D040882319F4C8010E94F7
:1028600082100E94651AC858DF4F688379838A8373
:102870009B83249728813981621B730B7A936A9317
:1028800080E0DF91CF911F910F91FF90EF90DF904B
:10289000CF90BF90AF900895C858DF4F888199813D
:1028A000AA81BB81C857D0400097A105B10541F767
:1028B000C2CF2F923F924F925F926F927F928F92F0
:1028C0009F92AF92BF92CF92DF92EF92FF920F93BF
:1028D0001F93DF93CF93CDB7DEB72B970FB6F89446
:1028E000DEBF0FBECDBF9B878A877A8369835C83F7
:1028F0004B838C0103591F4FF8018081882309F411
:102900001DC18A859B858D5A9F4FFC0110821292B2
:10291000E255F040FB87EA87108E9CE4E92EF12C0B
:10292000EE0EFF1EC70161E00E94C60B8AE0282E52
:10293000312C8A859B85280E391EB5E26B2E712CB1
:10294000680E791EE981FA81F491FD83A5E58A2E4E
:10295000912C880E991EF6E5CF2ED12CC80ED91ECB
:10296000E0E54E2E512C480E591E8F5A9F4F9F83E3
:102970008E837EE6A72EB12C8A859B85A80EB91E74
:10298000198708878A859B850E94A0138823D1F325
:102990009D81992311F410E003C0EE81FF81108125
:1029A000C70160E040E023E235E00E948C0E8B819D
:1029B0009C81892B41F0145FC70160E0412F2B817E
:1029C0003C810E948C0EF40110828CE0F601808321
:1029D000C70169817A810E94C01CF201208130E028
:1029E000C901880F991F820F931F909581959F4F62
:1029F0008D5AF4018083EE81FF81208130E0C9018E
:102A0000880F991F820F931F909581959F4F835D2B
:102A1000F6018083F501808184FF04C0C70163EA69
:102A200075E003C0C7016FE975E00E940B1DF2015C
:102A3000208130E0C901880F991F820F931F909564
:102A400081959F4F8D5AF4018083F60180818F5FBD
:102A50008083EA85FB8580A5882321F0C7016BE987
:102A600075E003C0C70167E975E00E940B1DF20124
:102A7000808190E09C01220F331F280F391F309571
:102A800021953F4F2D5AF4012083F60180818F5FFD
:102A90008083C70163E975E00E940B1DC10165E0F9
:102AA0000E94760B882351F0EA85FB8560A56F5F55
:102AB000C3010E94C819C3010E94C219C10164E088
:102AC0000E94760B882399F4E885F9856081262F8A
:102AD00030E040E050E0F50180819181A281B38136
:102AE00082179307A407B50708F16F3FF9F08A85AD
:102AF0009B8583599F4F9B878A878FEFEA85FB854C
:102B00008083ED56F040FB87EA87C30160E00E94B6
:102B10009416C3010E94BC1981E0EA85FB85808F71
:102B20000DC08A859B850E9486122CCFC10166E06C
:102B30000E94760B882309F425CFF3CF2B960FB68E
:102B4000F894DEBF0FBECDBFCF91DF911F910F91E3
:102B5000FF90EF90DF90CF90BF90AF909F908F90BD
:102B60007F906F905F904F903F902F90089540E03E
:102B700050E00E9459140895AF92BF92CF92DF9215
:102B8000EF920F93CF93DF936C018CE790E0C80E28
:102B9000D91E82E3F601808381E090E0A0E0B0E0FE
:102BA000B293A293929382936F0185EF9FEFC80E29
:102BB000D91E8FEFF601808383E99FEFC80ED91EDF
:102BC000C6010E947511C6010E94AF0AC6016FEFCF
:102BD0000E94B30A4AE0A42EB12CAC0CBD1CC50166
:102BE0000E94660BC5010E949E0BC60148960E947A
:102BF000200BC601845B9F4F6DE04BE020E10FE0AE
:102C00003EE0E32E0E949710E601A596CE010E94B9
:102C1000D519C50165E00E94760B882329F0CE0105
:102C200060E00E94C81906C0CE0169EA75E040E084
:102C30000E942316DF91CF910F91EF90DF90CF90FC
:102C4000BF90AF900895CF93DF93EC01442369F4D4
:102C50001D8A1B8A1AA219A21E8A1092A904109218
:102C6000A8041092A6041092B400A42FB0E09E0114
:102C70002A0F3B1FFD01EE0FFF1FEC0FFD1F748796
:102C800063871896AA0FBB1FAC0FBD1F1D921C9225
:102C900081E0F901818389E0848B178A118E138E7C
:102CA000DF91CF910895CF93DF939C01462FA62FFC
:102CB000B0E0EC01CA0FDB1F8881882371F18981A4
:102CC000882359F5FD01EE0FFF1FE20FF31F8F81DF
:102CD00090E0880F991F0580F681E02DE80FF91F1D
:102CE000859194915FEF8F3F950711F4188215C07D
:102CF0009A871496AA0FBB1FA20FB31F90E0880FEC
:102D0000991FED91FC91E80FF91F65917491C9012C
:102D10000E9423168F818F5F8F83DF91CF9108955B
:102D200060E00E9453160895FC01662369F4158A39
:102D3000138A12A211A2168A1092A9041092A80452
:102D40001092A6041092B400E60FF11D11820895AE
:102D5000FC01158A138A12A211A2168A1092A904E4
:102D60001092A8041092A6041092B4001182089543
:102D70000F93CF93DF93EC01623009F440C06330CE
:102D800030F4662359F0613009F04AC00BC063305B
:102D900009F43BC0643009F043C03DC0C00FD11DF1
:102DA0004C8B3EC0602F70E0DB01AA0FBB1FAC0F45
:102DB000BD1F842F90E0880F991F1D962D913C9187
:102DC0001E97280F391FF901859194915E969C9367
:102DD0008E935D97FC0145915491A42FFE01E60F5F
:102DE000F71F478F252F3327842F90E028173907A7
:102DF00008F4A52F6C0F7D1FFB01A0A311C0FC01DF
:102E0000E00FF11D478B208F0BC0FC01E00FF11D7F
:102E1000418F228F05C0FC01E00FF11D438F248FED
:102E2000DF91CF910F9108955F926F927F928F9271
:102E30009F92AF92BF92CF92DF92EF92FF920F9349
:102E40001F93CF93DF936C01562EE62EFF24DC01F7
:102E5000AE0DBF1D11968C911197882309F4C7C040
:102E600053968C915397882309F0C1C08701000FB6
:102E7000111F0C0D1D1DE7012896CC0FDD1FCC0D79
:102E8000DD1D68817981660F771FF80143855485C0
:102E9000640F751FFB01259134912115310509F04F
:102EA00069C01F968C911F97813031F41982188266
:102EB000FA01259134915EC011961C9211978C9164
:102EC000882391F0C601652D0E945316888199814F
:102ED000880F991FD8011B96ED91FC911C97E80F64
:102EE000F91F2591349146C0552009F080C05596B0
:102EF0001C92559753961C925397F80112A211A257
:102F000056961C92F701E755FB4F1082F701E855E2
:102F1000FB4F108226EA34E0E20EF31ED7011C922A
:102F20008091A604882311F08091A9048093B400B5
:102F30005EC0A6E036952795AA95E1F76F70422FFF
:102F40004F71F5E036952795FA95E1F72051C601C6
:102F5000052D0E94B81688819981019699838883EE
:102F6000880F991FD501ED91FC91E80FF91F25916C
:102F7000349114C04701880C991C68E0662E712CAE
:102F80006E0C7F1CE301CC0FDD1FCC0DDD1D560147
:102F9000A80CB91CEBE0F0E0AE0EBF1EB9017695AF
:102FA00067957695679520FDC4CFF601EE0DFF1D60
:102FB000862F8F73828B338B13A28C0C9D1CD401B4
:102FC00092961C921E92919781E0858B26EA34E0BE
:102FD000E20EF31ED7018C93168AF301EE0FFF1F4A
:102FE000EC0DFD1D80819181019691838083DF919D
:102FF000CF911F910F91FF90EF90DF90CF90BF90F6
:10300000AF909F908F907F906F905F90089560E059
:103010000E9414170895DF92EF92FF920F931F936F
:10302000CF93DF937C01062F10E0DC01A00FB11FCE
:1030300055968C915597882309F439C153968C91F4
:103040005397882339F5662309F031C155961C92B0
:10305000559753961C925397F801EE0FFF1FEE0DF4
:10306000FF1D12A211A256961C92F801E755FB4FC4
:103070001082F801E855FB4F10820A551B4FF801EA
:1030800010828091A604882311F08091A904809376
:10309000B4000DC1815053968C93539793968C91A5
:1030A0009397882309F069C0E801CC0FDD1FCE0D8E
:1030B000DF1D89A19AA10196880F991FED8DFE8DC4
:1030C000E80FF91F85919491282F277094962C93DF
:1030D0009497AC01E3E056954795EA95E1F79A019C
:1030E00036952795892F99278695869595968C9361
:1030F00095972F73F7018281289F202D1124939695
:103100002C939397F801E655FB4F4170408389A1BA
:103110009AA101969AA389A35F962C915F9730E0BC
:103120008217930750F190968C919097882329F0FD
:10313000281B31093AA329A320C06623F1F4559630
:103140001C92559753961C9253971AA219A2569601
:103150001C92F801E755FB4F1082F801E855FB4F30
:103160001082F801EA55FB4F10828091A604882353
:1031700011F08091A9048093B400F701E00FF11FD2
:1031800083A1815083A336893F5F368B428925A175
:10319000240F8285280F618D662311F4D22E0CC076
:1031A000832F992787FD909570E00E94DD20828D06
:1031B000869FD02C1124D20EF701E00FF11F248935
:1031C0006789662371F0772767FD7095832F9927AC
:1031D00087FD90950E94DD20808D869F802D112493
:1031E000280FF701E00FF11F638D662389F0832F0D
:1031F000992787FD909570E00E94DD20CB0162E069
:1032000070E00E94DD20948D899F802D1124280F6D
:103210004F3331F0822F2A300CF089E0482F87FDA0
:1032200040E0F8948D2D992787FD9095849664E26F
:1032300070E00E94DD20E82FFF27E7FDF095E353C3
:10324000FA4FE491D801A955BB4FEC93F701E00F79
:10325000F11F26A130E084A1992787FD9095B9013F
:10326000689F9001699F300D789F300D1124F70100
:10327000838190E0B901689F9001699F300D789F2C
:10328000300D1124842F992787FD9095FC012E9FE6
:10329000C0012F9F900D3E9F900D1124F801E8551D
:1032A000FB4F808307551B4FF80180837894DF9193
:1032B000CF911F910F91FF90EF90DF90089560E004
:1032C0000E940B1808956091A804662381F18091F3
:1032D000A5048F5F8093A5049091A704891738F106
:1032E00030E08091A604882309F431E03093A604ED
:1032F0001092A5048091AA048823A9F0809151011D
:1033000023E4829FC0011124895B8093510190E0E6
:1033100070E00E94C9208093A90405C08091A9048F
:103320008093B40008953323C9F780E0F9CF08955E
:103330001F920F920FB60F9211242F933F934F932A
:103340005F936F937F938F939F93AF93BF93EF930D
:10335000FF930E946319FF91EF91BF91AF919F91ED
:103360008F917F916F915F914F913F912F910F902E
:103370000FBE0F901F90189565EC75E040E00E941D
:103380002316089567EB75E040E00E942316089528
:10339000FC01862F648170E06F5F7F4F992787FD66
:1033A00090950E94DD20838308950F93FC0181E0B6
:1033B000828384E086A381EF95E096878587CF019D
:1033C00061E040E020E000E00E94B81683E061E0A8
:1033D00070E00E94411BE1EBF0E08081887F81601A
:1033E0008083F89410928000E1E8F0E0108210925F
:1033F00085001092840088E191E090938900809389
:103400008800808188608083808181608083EFE68E
:10341000F0E080818260808378940F9108951F92FC
:103420000F920FB60F9211242F933F938F939F9378
:10343000AF93BF938091AF049091B004A091B10479
:10344000B091B2043091B3040196A11DB11D232F98
:103450002D5F2D3720F02D570196A11DB11D209312
:10346000B3048093AF049093B004A093B104B093DD
:10347000B2048091AB049091AC04A091AD04B091E2
:10348000AE040196A11DB11D8093AB049093AC04D2
:10349000A093AD04B093AE04BF91AF919F918F9173
:1034A0003F912F910F900FBE0F901F9018958FB7DF
:1034B000F8942091AF043091B0044091B104509140
:1034C000B2048FBFB901CA0108959FB7F894209143
:1034D000AB043091AC044091AD045091AE0486B57C
:1034E000A89B06C08F3F21F02F5F3F4F4F4F5F4F8C
:1034F0009FBF542F432F322F2227280F311D411DEC
:10350000511D82E0220F331F441F551F8A95D1F7AA
:10351000B901CA0108959B01AC017FB7F89480916D
:10352000AB049091AC04A091AD04B091AE0466B52B
:10353000A89B05C06F3F19F00196A11DB11D7FBF6B
:10354000BA2FA92F982F8827860F911DA11DB11D75
:1035500062E0880F991FAA1FBB1F6A95D1F7BC01B3
:103560002DC0FFB7F8948091AB049091AC04A0916A
:10357000AD04B091AE04E6B5A89B05C0EF3F19F0CD
:103580000196A11DB11DFFBFBA2FA92F982F882723
:103590008E0F911DA11DB11DE2E0880F991FAA1F7A
:1035A000BB1FEA95D1F7861B970B885E9340C8F244
:1035B000215030404040504068517C4F211531052A
:1035C0004105510571F60895789484B5826084BDF3
:1035D00084B5816084BD85B5826085BD85B5816017
:1035E00085BDEEE6F0E0808181608083E1E8F0E077
:1035F0001082808182608083808181608083E0E8A6
:10360000F0E0808181608083E1EBF0E08081846084
:103610008083E0EBF0E0808181608083EAE7F0E086
:1036200080818460808380818260808380818160EA
:1036300080838081806880831092C1000895982FD4
:103640008E3008F09E509770809152018295880FBD
:10365000880F807C892B80937C0080917A00806425
:1036600080937A0080917A0086FDFCCF20917800CB
:1036700040917900942F80E030E0282B392BC9014C
:1036800008951F93CF93DF93182FEB0161E00E9401
:10369000A11B209709F44AC0CF3FD10509F449C0C6
:1036A000E12FF0E0ED5BF94F84918330C1F084307D
:1036B00028F4813051F08230B1F50CC0863019F118
:1036C000873049F1843079F514C084B5806884BDB1
:1036D000C7BD33C084B5806284BDC8BD2EC0809193
:1036E0008000806880938000D0938900C093880018
:1036F00024C080918000806280938000D0938B00F2
:10370000C0938A001AC08091B00080688093B00096
:10371000C093B30012C08091B00080628093B0006B
:10372000C093B4000AC0C038D1051CF4812F60E0FA
:1037300002C0812F61E00E94E01BDF91CF911F91B9
:103740000895CF93DF93482F50E0CA01815D994FD0
:10375000FC013491455E594FFA018491882369F147
:1037600090E0880F991FFC01E350FA4FA591B491A6
:10377000FC01E95FF94FC591D491662351F42FB74D
:10378000F8948C91932F909589238C938881892329
:103790000BC0623061F42FB7F8948C91932F909501
:1037A00089238C938881832B88832FBF06C09FB782
:1037B000F8948C91832B8C939FBFDF91CF910895C8
:1037C000482F50E0CA018D5B994FFC012491CA013A
:1037D000815D994FFC019491455E594FFA013491F6
:1037E000332309F440C0222351F1233071F02430F7
:1037F00028F42130A1F0223011F514C02630B1F0A8
:103800002730C1F02430D9F404C0809180008F7734
:1038100003C0809180008F7D8093800010C084B5AC
:103820008F7702C084B58F7D84BD09C08091B000C0
:103830008F7703C08091B0008F7D8093B000E32F1D
:10384000F0E0EE0FFF1FE95FF94FA591B4912FB79C
:10385000F894662321F48C919095892302C08C9171
:10386000892B8C932FBF0895682F70E0CB018D5B5F
:10387000994FFC012491CB01815D994FFC0144914A
:10388000655E794FFB019491992319F420E030E0B3
:103890003CC0222351F1233071F0243028F4213030
:1038A000A1F0223011F514C02630B1F02730C1F05C
:1038B0002430D9F404C0809180008F7703C08091B8
:1038C00080008F7D8093800010C084B58F7702C008
:1038D00084B58F7D84BD09C08091B0008F7703C00F
:1038E0008091B0008F7D8093B000892F90E0880F89
:1038F000991F8F5E994FFC01A591B4918C9120E0A6
:1039000030E0842311F021E030E0C9010895CF9325
:10391000DF930E94E41A0E943A0AC0E0D0E00E94BD
:10392000EB092097E1F30E940000F9CFCF92DF92DC
:10393000EF92FF920F931F93CF93DF937C016B0164
:103940008A01C0E0D0E00FC0D6016D916D01D701B2
:10395000ED91FC910190F081E02DC7010995C80F10
:10396000D91F015010400115110571F7CE01DF91EB
:10397000CF911F910F91FF90EF90DF90CF9008951E
:10398000EF92FF920F931F93CF93DF937C018B01F4
:10399000C0E0D0E0F8010F5F1F4F6491662359F03B
:1039A000D701ED91FC910190F081E02DC7010995BF
:1039B000C80FD91FEFCFCE01DF91CF911F910F918B
:1039C000FF90EF900895DC01ED91FC910190F08162
:1039D000E02D09950895EF92FF920F931F938C01AC
:1039E000DC01ED91FC910190F081E02D6DE00995F5
:1039F0007C01D801ED91FC910190F081E02DC8018E
:103A00006AE009959C012E0D3F1DC9011F910F9180
:103A1000FF90EF900895EF92FF920F931F937C0118
:103A20000E94C01C8C01C7010E94EB1C9C01200F4E
:103A3000311FC9011F910F91FF90EF900895CF930F
:103A4000DF93EC016115710519F420E030E00FC03F
:103A5000DB010D900020E9F71197A61BB70BE88159
:103A6000F9810280F381E02DAD0109959C01C90126
:103A7000DF91CF9108954F925F927F928F929F92A4
:103A8000AF92BF92CF92DF92EF92FF920F931F936C
:103A9000DF93CF93CDB7DEB7A1970FB6F894DEBF13
:103AA0000FBECDBF2C01742ECB01223008F42AE0CA
:103AB00019A231E2C32ED12CCC0EDD1E822E992408
:103AC000AA24BB24672D752FA50194010E94F02024
:103AD00079018A01C801B701A50194010E949E20C5
:103AE000472D461B0894C108D1084A3014F4405DA4
:103AF00001C0495CF6014083E114F10401051105A0
:103B000021F07E2C5F2DC801DDCFC201B6010E94DD
:103B10001F1DA1960FB6F894DEBF0FBECDBFCF918B
:103B2000DF911F910F91FF90EF90DF90CF90BF90AA
:103B3000AF909F908F907F905F904F900895CF921D
:103B4000DF92EF92FF920F931F93CF93DF93EC01DD
:103B50006A017B012115310541F4E881F981019069
:103B6000F081E02D642F09951FC02A303105D1F472
:103B700077FF17C0E881F9810190F081E02D6DE2B7
:103B800009958C0144275527BA014C195D096E0926
:103B90007F09CE012AE00E943B1D9801280F391FA2
:103BA00004C02AE00E943B1D9C01C901DF91CF9116
:103BB0001F910F91FF90EF90DF90CF900895EF92BB
:103BC000FF920F931F937B019A010027F7FC00954A
:103BD000102FB801A7010E949F1D1F910F91FF9008
:103BE000EF9008952F923F924F925F926F927F9243
:103BF0008F929F92AF92BF92CF92DF92EF92FF92FD
:103C00000F931F93DF93CF93CDB7DEB73B014C01EA
:103C100019012A016D897E898F89988D6A197B091E
:103C20008C099D09621A730A840A950AA4019301FA
:103C30000E949E20E218F30804091509A8019701C3
:103C40000E9412212A0D3B1D4C1D5D1DB901CA01A8
:103C5000CF91DF911F910F91FF90EF90DF90CF9068
:103C6000BF90AF909F908F907F906F905F904F909C
:103C70003F902F900895EF92FF920F931F937B0137
:103C80008C01611571058105910529F420E030E072
:103C900040E050E00BC00E94AA03A80197010E94D7
:103CA0001221AC01CB01DA019C01AD01B901CA01BD
:103CB0001F910F91FF90EF900895EF92FF920F9355
:103CC0001F937B018C01621773078407950764F4C7
:103CD000261B370B480B590BCA01B9010E943B1E2A
:103CE000E60EF71E081F191FB701C8011F910F919B
:103CF000FF90EF900895009729F0BC0180E090E0DC
:103D00000E94AF0308955058BB27AA270ED075C153
:103D100066D130F06BD120F031F49F3F11F41EF4E6
:103D20005BC10EF4E095E7FB51C1E92F77D180F339
:103D3000BA17620773078407950718F071F49EF5A8
:103D40008FC10EF4E0950B2EBA2FA02D0B01B901F7
:103D500090010C01CA01A0011124FF27591B99F001
:103D6000593F50F4503E68F11A16F040A22F232F0D
:103D7000342F4427585FF3CF469537952795A7955D
:103D8000F0405395C9F77EF41F16BA0B620B730B04
:103D9000840BBAF09150A1F0FF0FBB1F661F771F75
:103DA000881FC2F70EC0BA0F621F731F841F48F42A
:103DB000879577956795B795F7959E3F08F0B3CFB0
:103DC0009395880F08F09927EE0F9795879508959A
:103DD000D9D008F481E008950CD00FC107D140F08C
:103DE000FED030F021F45F3F19F0F0C0511139C11D
:103DF000F3C014D198F39923C9F35523B1F3951B5C
:103E0000550BBB27AA2762177307840738F09F5FFB
:103E10005F4F220F331F441FAA1FA9F333D00E2E6A
:103E20003AF0E0E830D091505040E695001CCAF7D7
:103E300029D0FE2F27D0660F771F881FBB1F26179C
:103E400037074807AB07B0E809F0BB0B802DBF016F
:103E5000FF2793585F4F2AF09E3F510568F0B6C088
:103E600000C15F3FECF3983EDCF38695779567954C
:103E7000B795F7959F5FC9F7880F911D9695879520
:103E800097F90895E1E0660F771F881FBB1F62173F
:103E900073078407BA0720F0621B730B840BBA0BFD
:103EA000EE1F88F7E095089504D06894B111D9C049
:103EB0000895BCD088F09F5790F0B92F9927B7513B
:103EC000A0F0D1F0660F771F881F991F1AF0BA95DE
:103ED000C9F712C0B13081F0C3D0B1E00895C0C0BD
:103EE000672F782F8827B85F39F0B93FCCF38695D4
:103EF00077956795B395D9F73EF490958095709531
:103F000061957F4F8F4F9F4F0895E89409C097FBAD
:103F10003EF490958095709561957F4F8F4F9F4FA0
:103F20009923A9F0F92F96E9BB279395F6958795E4
:103F300077956795B795F111F8CFFAF4BB0F11F4A7
:103F400060FF1BC06F5F7F4F8F4F9F4F16C088234E
:103F500011F096E911C0772321F09EE8872F762F84
:103F600005C0662371F096E8862F70E060E02AF0C5
:103F70009A95660F771F881FDAF7880F96958795B1
:103F800097F90895990F0008550FAA0BE0E8FEEF86
:103F900016161706E807F907C0F012161306E4070D
:103FA000F50798F0621B730B840B950B39F40A2606
:103FB00061F0232B242B252B21F408950A2609F4E4
:103FC000A140A6958FEF811D811D089597F99F67E8
:103FD00080E870E060E008959FEF80EC0895002491
:103FE0000A941616170618060906089500240A945E
:103FF00012161306140605060895092E0394000CE4
:1040000011F4882352F0BB0F40F4BF2B11F460FF72
:1040100004C06F5F7F4F8F4F9F4F089557FD90589B
:10402000440F551F59F05F3F71F04795880F97FB7C
:10403000991F61F09F3F79F0879508951216130636
:104040001406551FF2CF4695F1DF08C01616170665
:104050001806991FF1CF869571056105089408959A
:10406000E894BB2766277727CB0197F908958ADF65
:1040700008F48FEF08950BD0C0CFB1DF28F0B6DF82
:1040800018F0952309F0A2CFA7CF1124EACFC6DFFD
:10409000A0F3959FD1F3950F50E0551F629FF0015B
:1040A000729FBB27F00DB11D639FAA27F00DB11DB4
:1040B000AA1F649F6627B00DA11D661F829F22273D
:1040C000B00DA11D621F739FB00DA11D621F839FC4
:1040D000A00D611D221F749F3327A00D611D231F9A
:1040E000849F600D211D822F762F6A2F11249F57E8
:1040F00050408AF0E1F088234AF0EE0FFF1FBB1F0B
:10410000661F771F881F91505040A9F79E3F5105A9
:1041100070F05CCFA6CF5F3FECF3983EDCF3869562
:1041200077956795B795F795E7959F5FC1F7FE2B54
:10413000880F911D9695879597F90895629FD001F4
:10414000739FF001829FE00DF11D649FE00DF11D52
:10415000929FF00D839FF00D749FF00D659FF00D01
:104160009927729FB00DE11DF91F639FB00DE11DEE
:10417000F91FBD01CF0111240895991B79E004C0F6
:10418000991F961708F0961B881F7A95C9F7809596
:104190000895AA1BBB1B51E107C0AA1FBB1FA6178E
:1041A000B70710F0A61BB70B881F991F5A95A9F7E0
:1041B00080959095BC01CD01089597FB092E0726A7
:1041C0000AD077FD04D0E5DF06D000201AF4709500
:1041D00061957F4F0895F6F7909581959F4F0895CB
:1041E000A1E21A2EAA1BBB1BFD010DC0AA1FBB1FFB
:1041F000EE1FFF1FA217B307E407F50720F0A21B6D
:10420000B30BE40BF50B661F771F881F991F1A94D9
:1042100069F760957095809590959B01AC01BD0103
:10422000CF01089597FB092E05260ED057FD04D027
:10423000D7DF0AD0001C38F4509540953095219571
:104240003F4F4F4F5F4F0895F6F7909580957095CB
:1042500061957F4F8F4F9F4F0895EE0FFF1F059081
:10426000F491E02D09942F923F924F925F926F92BA
:104270007F928F929F92AF92BF92CF92DF92EF92F6
:10428000FF920F931F93CF93DF93CDB7DEB7CA1B77
:10429000DB0B0FB6F894DEBF0FBECDBF09942A88A2
:1042A000398848885F846E847D848C849B84AA844A
:1042B000B984C884DF80EE80FD800C811B81AA81D7
:1042C000B981CE0FD11D0FB6F894DEBF0FBECDBFA2
:0842D000ED010895F894FFCF01
:1042D8004C4F4144455200010000000400000030EA
:1042E80042000040411E006666663F0000C842006A
:1042F8000000400000804000004041140009000018
:104308000000400000A0400000A040000070413CB8
:10431800009A99993E00000040CDCCCC3E00002088
:0C432800C0010100000000E50F961C0021
:00000001FF
